{
  "contractName": "QVVoting",
  "abi": [
    {
      "constant": true,
      "inputs": [],
      "name": "name",
      "outputs": [
        {
          "name": "",
          "type": "string"
        }
      ],
      "payable": false,
      "stateMutability": "view",
      "type": "function",
      "signature": "0x06fdde03"
    },
    {
      "constant": false,
      "inputs": [],
      "name": "renounceOwnership",
      "outputs": [],
      "payable": false,
      "stateMutability": "nonpayable",
      "type": "function",
      "signature": "0x715018a6"
    },
    {
      "constant": true,
      "inputs": [],
      "name": "owner",
      "outputs": [
        {
          "name": "",
          "type": "address"
        }
      ],
      "payable": false,
      "stateMutability": "view",
      "type": "function",
      "signature": "0x8da5cb5b"
    },
    {
      "constant": true,
      "inputs": [],
      "name": "isOwner",
      "outputs": [
        {
          "name": "",
          "type": "bool"
        }
      ],
      "payable": false,
      "stateMutability": "view",
      "type": "function",
      "signature": "0x8f32d59b"
    },
    {
      "constant": true,
      "inputs": [],
      "name": "symbol",
      "outputs": [
        {
          "name": "",
          "type": "string"
        }
      ],
      "payable": false,
      "stateMutability": "view",
      "type": "function",
      "signature": "0x95d89b41"
    },
    {
      "constant": false,
      "inputs": [
        {
          "name": "account",
          "type": "address"
        }
      ],
      "name": "addMinter",
      "outputs": [],
      "payable": false,
      "stateMutability": "nonpayable",
      "type": "function",
      "signature": "0x983b2d56"
    },
    {
      "constant": false,
      "inputs": [],
      "name": "renounceMinter",
      "outputs": [],
      "payable": false,
      "stateMutability": "nonpayable",
      "type": "function",
      "signature": "0x98650275"
    },
    {
      "constant": true,
      "inputs": [
        {
          "name": "account",
          "type": "address"
        }
      ],
      "name": "isMinter",
      "outputs": [
        {
          "name": "",
          "type": "bool"
        }
      ],
      "payable": false,
      "stateMutability": "view",
      "type": "function",
      "signature": "0xaa271e1a"
    },
    {
      "constant": true,
      "inputs": [],
      "name": "ProposalCount",
      "outputs": [
        {
          "name": "",
          "type": "uint256"
        }
      ],
      "payable": false,
      "stateMutability": "view",
      "type": "function",
      "signature": "0xbe747c1c"
    },
    {
      "constant": true,
      "inputs": [
        {
          "name": "",
          "type": "uint256"
        }
      ],
      "name": "Proposals",
      "outputs": [
        {
          "name": "creator",
          "type": "address"
        },
        {
          "name": "status",
          "type": "uint8"
        },
        {
          "name": "yesVotes",
          "type": "uint256"
        },
        {
          "name": "noVotes",
          "type": "uint256"
        },
        {
          "name": "description",
          "type": "string"
        },
        {
          "name": "expirationTime",
          "type": "uint256"
        }
      ],
      "payable": false,
      "stateMutability": "view",
      "type": "function",
      "signature": "0xd1dbe7d8"
    },
    {
      "constant": false,
      "inputs": [
        {
          "name": "newOwner",
          "type": "address"
        }
      ],
      "name": "transferOwnership",
      "outputs": [],
      "payable": false,
      "stateMutability": "nonpayable",
      "type": "function",
      "signature": "0xf2fde38b"
    },
    {
      "inputs": [],
      "payable": false,
      "stateMutability": "nonpayable",
      "type": "constructor",
      "signature": "constructor"
    },
    {
      "anonymous": false,
      "inputs": [
        {
          "indexed": false,
          "name": "voter",
          "type": "address"
        },
        {
          "indexed": false,
          "name": "ProposalID",
          "type": "uint256"
        },
        {
          "indexed": false,
          "name": "weight",
          "type": "uint256"
        }
      ],
      "name": "VoteCasted",
      "type": "event",
      "signature": "0xcb87df07b1c304492bd875a5c8b98672eca500939412809ea229afef1d745188"
    },
    {
      "anonymous": false,
      "inputs": [
        {
          "indexed": false,
          "name": "creator",
          "type": "address"
        },
        {
          "indexed": false,
          "name": "ProposalID",
          "type": "uint256"
        },
        {
          "indexed": false,
          "name": "description",
          "type": "string"
        },
        {
          "indexed": false,
          "name": "votingTimeInHours",
          "type": "uint256"
        }
      ],
      "name": "ProposalCreated",
      "type": "event",
      "signature": "0x781e930fda5896dda55b0c20f29c285b9bedfb112a3a6456d12c63b278537ae0"
    },
    {
      "anonymous": false,
      "inputs": [
        {
          "indexed": true,
          "name": "account",
          "type": "address"
        }
      ],
      "name": "MinterAdded",
      "type": "event",
      "signature": "0x6ae172837ea30b801fbfcdd4108aa1d5bf8ff775444fd70256b44e6bf3dfc3f6"
    },
    {
      "anonymous": false,
      "inputs": [
        {
          "indexed": true,
          "name": "account",
          "type": "address"
        }
      ],
      "name": "MinterRemoved",
      "type": "event",
      "signature": "0xe94479a9f7e1952cc78f2d6baab678adc1b772d936c6583def489e524cb66692"
    },
    {
      "anonymous": false,
      "inputs": [
        {
          "indexed": true,
          "name": "previousOwner",
          "type": "address"
        },
        {
          "indexed": true,
          "name": "newOwner",
          "type": "address"
        }
      ],
      "name": "OwnershipTransferred",
      "type": "event",
      "signature": "0x8be0079c531659141344cd1fd0a4f28419497f9722a3daafe3b4186f6b6457e0"
    },
    {
      "constant": false,
      "inputs": [
        {
          "name": "_description",
          "type": "string"
        },
        {
          "name": "_voteExpirationTime",
          "type": "uint256"
        }
      ],
      "name": "createProposal",
      "outputs": [
        {
          "name": "",
          "type": "uint256"
        }
      ],
      "payable": false,
      "stateMutability": "nonpayable",
      "type": "function",
      "signature": "0x35facf78"
    },
    {
      "constant": false,
      "inputs": [
        {
          "name": "_ProposalID",
          "type": "uint256"
        }
      ],
      "name": "setProposalToTally",
      "outputs": [],
      "payable": false,
      "stateMutability": "nonpayable",
      "type": "function",
      "signature": "0x2d5e9d29"
    },
    {
      "constant": false,
      "inputs": [
        {
          "name": "_ProposalID",
          "type": "uint256"
        }
      ],
      "name": "setProposalToEnded",
      "outputs": [],
      "payable": false,
      "stateMutability": "nonpayable",
      "type": "function",
      "signature": "0x4c3bd9d6"
    },
    {
      "constant": true,
      "inputs": [
        {
          "name": "_ProposalID",
          "type": "uint256"
        }
      ],
      "name": "getProposalStatus",
      "outputs": [
        {
          "name": "",
          "type": "uint8"
        }
      ],
      "payable": false,
      "stateMutability": "view",
      "type": "function",
      "signature": "0x401853b7"
    },
    {
      "constant": true,
      "inputs": [
        {
          "name": "_ProposalID",
          "type": "uint256"
        }
      ],
      "name": "getProposalExpirationTime",
      "outputs": [
        {
          "name": "",
          "type": "uint256"
        }
      ],
      "payable": false,
      "stateMutability": "view",
      "type": "function",
      "signature": "0x4d5f9eba"
    },
    {
      "constant": true,
      "inputs": [
        {
          "name": "_ProposalID",
          "type": "uint256"
        }
      ],
      "name": "countVotes",
      "outputs": [
        {
          "name": "",
          "type": "uint256"
        },
        {
          "name": "",
          "type": "uint256"
        }
      ],
      "payable": false,
      "stateMutability": "view",
      "type": "function",
      "signature": "0x1840f0ca"
    },
    {
      "constant": false,
      "inputs": [
        {
          "name": "_ProposalID",
          "type": "uint256"
        },
        {
          "name": "numTokens",
          "type": "uint256"
        },
        {
          "name": "_vote",
          "type": "bool"
        }
      ],
      "name": "castVote",
      "outputs": [],
      "payable": false,
      "stateMutability": "nonpayable",
      "type": "function",
      "signature": "0xf9000ba8"
    },
    {
      "constant": false,
      "inputs": [
        {
          "name": "account",
          "type": "address"
        },
        {
          "name": "amount",
          "type": "uint256"
        }
      ],
      "name": "mint",
      "outputs": [],
      "payable": false,
      "stateMutability": "nonpayable",
      "type": "function",
      "signature": "0x40c10f19"
    },
    {
      "constant": true,
      "inputs": [
        {
          "name": "account",
          "type": "address"
        }
      ],
      "name": "balanceOf",
      "outputs": [
        {
          "name": "",
          "type": "uint256"
        }
      ],
      "payable": false,
      "stateMutability": "view",
      "type": "function",
      "signature": "0x70a08231"
    }
  ],
  "bytecode": "0x60806040523480156200001157600080fd5b50336000806101000a81548173ffffffffffffffffffffffffffffffffffffffff021916908373ffffffffffffffffffffffffffffffffffffffff1602179055506000809054906101000a900473ffffffffffffffffffffffffffffffffffffffff1673ffffffffffffffffffffffffffffffffffffffff16600073ffffffffffffffffffffffffffffffffffffffff167f8be0079c531659141344cd1fd0a4f28419497f9722a3daafe3b4186f6b6457e060405160405180910390a3620000e8336200018a640100000000026401000000009004565b6040805190810160405280600381526020017f5156560000000000000000000000000000000000000000000000000000000000815250600390805190602001906200013592919062000407565b506040805190810160405280600981526020017f515620566f74696e670000000000000000000000000000000000000000000000815250600490805190602001906200018392919062000407565b50620004b6565b620001ae816001620001f464010000000002620024ba179091906401000000009004565b8073ffffffffffffffffffffffffffffffffffffffff167f6ae172837ea30b801fbfcdd4108aa1d5bf8ff775444fd70256b44e6bf3dfc3f660405160405180910390a250565b6200020f8282620002e3640100000000026401000000009004565b15151562000285576040517f08c379a000000000000000000000000000000000000000000000000000000000815260040180806020018281038252601f8152602001807f526f6c65733a206163636f756e7420616c72656164792068617320726f6c650081525060200191505060405180910390fd5b60018260000160008373ffffffffffffffffffffffffffffffffffffffff1673ffffffffffffffffffffffffffffffffffffffff16815260200190815260200160002060006101000a81548160ff0219169083151502179055505050565b60008073ffffffffffffffffffffffffffffffffffffffff168273ffffffffffffffffffffffffffffffffffffffff1614151515620003b0576040517f08c379a00000000000000000000000000000000000000000000000000000000081526004018080602001828103825260228152602001807f526f6c65733a206163636f756e7420697320746865207a65726f20616464726581526020017f737300000000000000000000000000000000000000000000000000000000000081525060400191505060405180910390fd5b8260000160008373ffffffffffffffffffffffffffffffffffffffff1673ffffffffffffffffffffffffffffffffffffffff16815260200190815260200160002060009054906101000a900460ff16905092915050565b828054600181600116156101000203166002900490600052602060002090601f016020900481019282601f106200044a57805160ff19168380011785556200047b565b828001600101855582156200047b579182015b828111156200047a5782518255916020019190600101906200045d565b5b5090506200048a91906200048e565b5090565b620004b391905b80821115620004af57600081600090555060010162000495565b5090565b90565b61276a80620004c66000396000f3fe608060405260043610610112576000357c0100000000000000000000000000000000000000000000000000000000900463ffffffff16806306fdde03146101175780631840f0ca146101a75780632d5e9d29146101fd57806335facf7814610238578063401853b7146102dc57806340c10f19146103395780634c3bd9d6146103945780634d5f9eba146103cf57806370a082311461041e578063715018a6146104835780638da5cb5b1461049a5780638f32d59b146104f157806395d89b4114610520578063983b2d56146105b05780639865027514610601578063aa271e1a14610618578063be747c1c14610681578063d1dbe7d8146106ac578063f2fde38b146107bd578063f9000ba81461080e575b600080fd5b34801561012357600080fd5b5061012c61085f565b6040518080602001828103825283818151815260200191508051906020019080838360005b8381101561016c578082015181840152602081019050610151565b50505050905090810190601f1680156101995780820380516001836020036101000a031916815260200191505b509250505060405180910390f35b3480156101b357600080fd5b506101e0600480360360208110156101ca57600080fd5b81019080803590602001909291905050506108fd565b604051808381526020018281526020019250505060405180910390f35b34801561020957600080fd5b506102366004803603602081101561022057600080fd5b8101908080359060200190929190505050610ad3565b005b34801561024457600080fd5b506102c66004803603604081101561025b57600080fd5b810190808035906020019064010000000081111561027857600080fd5b82018360208201111561028a57600080fd5b803590602001918460018302840111640100000000831117156102ac57600080fd5b909192939192939080359060200190929190505050610d43565b6040518082815260200191505060405180910390f35b3480156102e857600080fd5b50610315600480360360208110156102ff57600080fd5b8101908080359060200190929190505050610fa8565b6040518082600281111561032557fe5b60ff16815260200191505060405180910390f35b34801561034557600080fd5b506103926004803603604081101561035c57600080fd5b81019080803573ffffffffffffffffffffffffffffffffffffffff1690602001909291908035906020019092919050505061105d565b005b3480156103a057600080fd5b506103cd600480360360208110156103b757600080fd5b8101908080359060200190929190505050611232565b005b3480156103db57600080fd5b50610408600480360360208110156103f257600080fd5b81019080803590602001909291905050506114a2565b6040518082815260200191505060405180910390f35b34801561042a57600080fd5b5061046d6004803603602081101561044157600080fd5b81019080803573ffffffffffffffffffffffffffffffffffffffff16906020019092919050505061154a565b6040518082815260200191505060405180910390f35b34801561048f57600080fd5b50610498611593565b005b3480156104a657600080fd5b506104af6116ce565b604051808273ffffffffffffffffffffffffffffffffffffffff1673ffffffffffffffffffffffffffffffffffffffff16815260200191505060405180910390f35b3480156104fd57600080fd5b506105066116f7565b604051808215151515815260200191505060405180910390f35b34801561052c57600080fd5b5061053561174e565b6040518080602001828103825283818151815260200191508051906020019080838360005b8381101561057557808201518184015260208101905061055a565b50505050905090810190601f1680156105a25780820380516001836020036101000a031916815260200191505b509250505060405180910390f35b3480156105bc57600080fd5b506105ff600480360360208110156105d357600080fd5b81019080803573ffffffffffffffffffffffffffffffffffffffff1690602001909291905050506117ec565b005b34801561060d57600080fd5b5061061661189b565b005b34801561062457600080fd5b506106676004803603602081101561063b57600080fd5b81019080803573ffffffffffffffffffffffffffffffffffffffff1690602001909291905050506118a6565b604051808215151515815260200191505060405180910390f35b34801561068d57600080fd5b506106966118c3565b6040518082815260200191505060405180910390f35b3480156106b857600080fd5b506106e5600480360360208110156106cf57600080fd5b81019080803590602001909291905050506118c9565b604051808773ffffffffffffffffffffffffffffffffffffffff1673ffffffffffffffffffffffffffffffffffffffff16815260200186600281111561072757fe5b60ff16815260200185815260200184815260200180602001838152602001828103825284818151815260200191508051906020019080838360005b8381101561077d578082015181840152602081019050610762565b50505050905090810190601f1680156107aa5780820380516001836020036101000a031916815260200191505b5097505050505050505060405180910390f35b3480156107c957600080fd5b5061080c600480360360208110156107e057600080fd5b81019080803573ffffffffffffffffffffffffffffffffffffffff1690602001909291905050506119ca565b005b34801561081a57600080fd5b5061085d6004803603606081101561083157600080fd5b810190808035906020019092919080359060200190929190803515159060200190929190505050611a52565b005b60048054600181600116156101000203166002900480601f0160208091040260200160405190810160405280929190818152602001828054600181600116156101000203166002900480156108f55780601f106108ca576101008083540402835291602001916108f5565b820191906000526020600020905b8154815290600101906020018083116108d857829003601f168201915b505050505081565b600080600080905060008090506060600660008781526020019081526020016000206004018054806020026020016040519081016040528092919081815260200182805480156109a257602002820191906000526020600020905b8160009054906101000a900473ffffffffffffffffffffffffffffffffffffffff1673ffffffffffffffffffffffffffffffffffffffff1681526020019060010190808311610958575b5050505050905060008090505b8151811015610ac457600082828151811015156109c857fe5b9060200190602002015190506000600660008a815260200190815260200160002060060160008373ffffffffffffffffffffffffffffffffffffffff1673ffffffffffffffffffffffffffffffffffffffff16815260200190815260200160002060000160019054906101000a900460ff1690506000600660008b815260200190815260200160002060060160008473ffffffffffffffffffffffffffffffffffffffff1673ffffffffffffffffffffffffffffffffffffffff168152602001908152602001600020600101549050600115158215151415610aae578087019650610ab4565b80860195505b50505080806001019150506109af565b50828294509450505050915091565b80600081118015610ae657506007548111155b1515610b5a576040517f08c379a00000000000000000000000000000000000000000000000000000000081526004018080602001828103825260178152602001807f4e6f7420612076616c69642050726f706f73616c20496400000000000000000081525060200191505060405180910390fd5b610b626116f7565b1515610bd6576040517f08c379a00000000000000000000000000000000000000000000000000000000081526004018080602001828103825260208152602001807f4f776e61626c653a2063616c6c6572206973206e6f7420746865206f776e657281525060200191505060405180910390fd5b60006002811115610be357fe5b6006600084815260200190815260200160002060000160149054906101000a900460ff166002811115610c1257fe5b141515610c87576040517f08c379a00000000000000000000000000000000000000000000000000000000081526004018080602001828103825260178152602001807f566f7465206973206e6f7420696e2070726f677265737300000000000000000081525060200191505060405180910390fd5b610c90826114a2565b4210151515610d07576040517f08c379a000000000000000000000000000000000000000000000000000000000815260040180806020018281038252601d8152602001807f766f74696e6720706572696f6420686173206e6f74206578706972656400000081525060200191505060405180910390fd5b60016006600084815260200190815260200160002060000160146101000a81548160ff02191690836002811115610d3a57fe5b02179055505050565b6000610d4d6116f7565b1515610dc1576040517f08c379a00000000000000000000000000000000000000000000000000000000081526004018080602001828103825260208152602001807f4f776e61626c653a2063616c6c6572206973206e6f7420746865206f776e657281525060200191505060405180910390fd5b600082111515610e39576040517f08c379a000000000000000000000000000000000000000000000000000000000815260040180806020018281038252601d8152602001807f54686520766f74696e6720706572696f642063616e6e6f74206265203000000081525060200191505060405180910390fd5b60076000815480929190600101919050555060006006600060075481526020019081526020016000209050338160000160006101000a81548173ffffffffffffffffffffffffffffffffffffffff021916908373ffffffffffffffffffffffffffffffffffffffff16021790555060008160000160146101000a81548160ff02191690836002811115610ec857fe5b0217905550600183603c0202420181600501819055508484826003019190610ef1929190612699565b507f781e930fda5896dda55b0c20f29c285b9bedfb112a3a6456d12c63b278537ae033600754878787604051808673ffffffffffffffffffffffffffffffffffffffff1673ffffffffffffffffffffffffffffffffffffffff168152602001858152602001806020018381526020018281038252858582818152602001925080828437600081840152601f19601f820116905080830192505050965050505050505060405180910390a16007549150509392505050565b600081600081118015610fbd57506007548111155b1515611031576040517f08c379a00000000000000000000000000000000000000000000000000000000081526004018080602001828103825260178152602001807f4e6f7420612076616c69642050726f706f73616c20496400000000000000000081525060200191505060405180910390fd5b6006600084815260200190815260200160002060000160149054906101000a900460ff16915050919050565b6110656116f7565b15156110d9576040517f08c379a00000000000000000000000000000000000000000000000000000000081526004018080602001828103825260208152602001807f4f776e61626c653a2063616c6c6572206973206e6f7420746865206f776e657281525060200191505060405180910390fd5b600073ffffffffffffffffffffffffffffffffffffffff168273ffffffffffffffffffffffffffffffffffffffff161415151561117e576040517f08c379a00000000000000000000000000000000000000000000000000000000081526004018080602001828103825260198152602001807f206d696e7420746f20746865207a65726f20616464726573730000000000000081525060200191505060405180910390fd5b61119381600254611f0490919063ffffffff16565b6002819055506111eb81600560008573ffffffffffffffffffffffffffffffffffffffff1673ffffffffffffffffffffffffffffffffffffffff16815260200190815260200160002054611f0490919063ffffffff16565b600560008473ffffffffffffffffffffffffffffffffffffffff1673ffffffffffffffffffffffffffffffffffffffff168152602001908152602001600020819055505050565b8060008111801561124557506007548111155b15156112b9576040517f08c379a00000000000000000000000000000000000000000000000000000000081526004018080602001828103825260178152602001807f4e6f7420612076616c69642050726f706f73616c20496400000000000000000081525060200191505060405180910390fd5b6112c16116f7565b1515611335576040517f08c379a00000000000000000000000000000000000000000000000000000000081526004018080602001828103825260208152602001807f4f776e61626c653a2063616c6c6572206973206e6f7420746865206f776e657281525060200191505060405180910390fd5b6001600281111561134257fe5b6006600084815260200190815260200160002060000160149054906101000a900460ff16600281111561137157fe5b1415156113e6576040517f08c379a000000000000000000000000000000000000000000000000000000000815260040180806020018281038252601b8152602001807f50726f706f73616c2073686f756c6420626520696e2074616c6c79000000000081525060200191505060405180910390fd5b6113ef826114a2565b4210151515611466576040517f08c379a000000000000000000000000000000000000000000000000000000000815260040180806020018281038252601d8152602001807f766f74696e6720706572696f6420686173206e6f74206578706972656400000081525060200191505060405180910390fd5b60026006600084815260200190815260200160002060000160146101000a81548160ff0219169083600281111561149957fe5b02179055505050565b6000816000811180156114b757506007548111155b151561152b576040517f08c379a00000000000000000000000000000000000000000000000000000000081526004018080602001828103825260178152602001807f4e6f7420612076616c69642050726f706f73616c20496400000000000000000081525060200191505060405180910390fd5b6006600084815260200190815260200160002060050154915050919050565b6000600560008373ffffffffffffffffffffffffffffffffffffffff1673ffffffffffffffffffffffffffffffffffffffff168152602001908152602001600020549050919050565b61159b6116f7565b151561160f576040517f08c379a00000000000000000000000000000000000000000000000000000000081526004018080602001828103825260208152602001807f4f776e61626c653a2063616c6c6572206973206e6f7420746865206f776e657281525060200191505060405180910390fd5b600073ffffffffffffffffffffffffffffffffffffffff166000809054906101000a900473ffffffffffffffffffffffffffffffffffffffff1673ffffffffffffffffffffffffffffffffffffffff167f8be0079c531659141344cd1fd0a4f28419497f9722a3daafe3b4186f6b6457e060405160405180910390a360008060006101000a81548173ffffffffffffffffffffffffffffffffffffffff021916908373ffffffffffffffffffffffffffffffffffffffff160217905550565b60008060009054906101000a900473ffffffffffffffffffffffffffffffffffffffff16905090565b60008060009054906101000a900473ffffffffffffffffffffffffffffffffffffffff1673ffffffffffffffffffffffffffffffffffffffff163373ffffffffffffffffffffffffffffffffffffffff1614905090565b60038054600181600116156101000203166002900480601f0160208091040260200160405190810160405280929190818152602001828054600181600116156101000203166002900480156117e45780601f106117b9576101008083540402835291602001916117e4565b820191906000526020600020905b8154815290600101906020018083116117c757829003601f168201915b505050505081565b6117f5336118a6565b151561188f576040517f08c379a00000000000000000000000000000000000000000000000000000000081526004018080602001828103825260308152602001807f4d696e746572526f6c653a2063616c6c657220646f6573206e6f74206861766581526020017f20746865204d696e74657220726f6c650000000000000000000000000000000081525060400191505060405180910390fd5b61189881611f8e565b50565b6118a433611fe8565b565b60006118bc82600161204290919063ffffffff16565b9050919050565b60075481565b60066020528060005260406000206000915090508060000160009054906101000a900473ffffffffffffffffffffffffffffffffffffffff16908060000160149054906101000a900460ff1690806001015490806002015490806003018054600181600116156101000203166002900480601f0160208091040260200160405190810160405280929190818152602001828054600181600116156101000203166002900480156119ba5780601f1061198f576101008083540402835291602001916119ba565b820191906000526020600020905b81548152906001019060200180831161199d57829003601f168201915b5050505050908060050154905086565b6119d26116f7565b1515611a46576040517f08c379a00000000000000000000000000000000000000000000000000000000081526004018080602001828103825260208152602001807f4f776e61626c653a2063616c6c6572206973206e6f7420746865206f776e657281525060200191505060405180910390fd5b611a4f81612165565b50565b82600081118015611a6557506007548111155b1515611ad9576040517f08c379a00000000000000000000000000000000000000000000000000000000081526004018080602001828103825260178152602001807f4e6f7420612076616c69642050726f706f73616c20496400000000000000000081525060200191505060405180910390fd5b60006002811115611ae657fe5b611aef85610fa8565b6002811115611afa57fe5b141515611b6f576040517f08c379a00000000000000000000000000000000000000000000000000000000081526004018080602001828103825260158152602001807f70726f706f73616c2068617320657870697265642e000000000000000000000081525060200191505060405180910390fd5b611b7984336122ee565b151515611c14576040517f08c379a00000000000000000000000000000000000000000000000000000000081526004018080602001828103825260238152602001807f7573657220616c726561647920766f746564206f6e20746869732070726f706f81526020017f73616c000000000000000000000000000000000000000000000000000000000081525060400191505060405180910390fd5b42611c1e856114a2565b111515611cb9576040517f08c379a000000000000000000000000000000000000000000000000000000000815260040180806020018281038252602a8152602001807f666f7220746869732070726f706f73616c2c2074686520766f74696e6720746981526020017f6d6520657870697265640000000000000000000000000000000000000000000081525060400191505060405180910390fd5b611d0b83600560003373ffffffffffffffffffffffffffffffffffffffff1673ffffffffffffffffffffffffffffffffffffffff168152602001908152602001600020546123e490919063ffffffff16565b600560003373ffffffffffffffffffffffffffffffffffffffff1673ffffffffffffffffffffffffffffffffffffffff168152602001908152602001600020819055506000611d598461246f565b905060006006600087815260200190815260200160002090506060604051908101604052806001151581526020018515158152602001838152508160060160003373ffffffffffffffffffffffffffffffffffffffff1673ffffffffffffffffffffffffffffffffffffffff16815260200190815260200160002060008201518160000160006101000a81548160ff02191690831515021790555060208201518160000160016101000a81548160ff02191690831515021790555060408201518160010155905050806004013390806001815401808255809150509060018203906000526020600020016000909192909190916101000a81548173ffffffffffffffffffffffffffffffffffffffff021916908373ffffffffffffffffffffffffffffffffffffffff160217905550507fcb87df07b1c304492bd875a5c8b98672eca500939412809ea229afef1d745188338784604051808473ffffffffffffffffffffffffffffffffffffffff1673ffffffffffffffffffffffffffffffffffffffff168152602001838152602001828152602001935050505060405180910390a1505050505050565b6000808284019050838110151515611f84576040517f08c379a000000000000000000000000000000000000000000000000000000000815260040180806020018281038252601b8152602001807f536166654d6174683a206164646974696f6e206f766572666c6f77000000000081525060200191505060405180910390fd5b8091505092915050565b611fa28160016124ba90919063ffffffff16565b8073ffffffffffffffffffffffffffffffffffffffff167f6ae172837ea30b801fbfcdd4108aa1d5bf8ff775444fd70256b44e6bf3dfc3f660405160405180910390a250565b611ffc81600161259790919063ffffffff16565b8073ffffffffffffffffffffffffffffffffffffffff167fe94479a9f7e1952cc78f2d6baab678adc1b772d936c6583def489e524cb6669260405160405180910390a250565b60008073ffffffffffffffffffffffffffffffffffffffff168273ffffffffffffffffffffffffffffffffffffffff161415151561210e576040517f08c379a00000000000000000000000000000000000000000000000000000000081526004018080602001828103825260228152602001807f526f6c65733a206163636f756e7420697320746865207a65726f20616464726581526020017f737300000000000000000000000000000000000000000000000000000000000081525060400191505060405180910390fd5b8260000160008373ffffffffffffffffffffffffffffffffffffffff1673ffffffffffffffffffffffffffffffffffffffff16815260200190815260200160002060009054906101000a900460ff16905092915050565b600073ffffffffffffffffffffffffffffffffffffffff168173ffffffffffffffffffffffffffffffffffffffff1614151515612230576040517f08c379a00000000000000000000000000000000000000000000000000000000081526004018080602001828103825260268152602001807f4f776e61626c653a206e6577206f776e657220697320746865207a65726f206181526020017f646472657373000000000000000000000000000000000000000000000000000081525060400191505060405180910390fd5b8073ffffffffffffffffffffffffffffffffffffffff166000809054906101000a900473ffffffffffffffffffffffffffffffffffffffff1673ffffffffffffffffffffffffffffffffffffffff167f8be0079c531659141344cd1fd0a4f28419497f9722a3daafe3b4186f6b6457e060405160405180910390a3806000806101000a81548173ffffffffffffffffffffffffffffffffffffffff021916908373ffffffffffffffffffffffffffffffffffffffff16021790555050565b60008260008111801561230357506007548111155b1515612377576040517f08c379a00000000000000000000000000000000000000000000000000000000081526004018080602001828103825260178152602001807f4e6f7420612076616c69642050726f706f73616c20496400000000000000000081525060200191505060405180910390fd5b6006600085815260200190815260200160002060060160008473ffffffffffffffffffffffffffffffffffffffff1673ffffffffffffffffffffffffffffffffffffffff16815260200190815260200160002060000160009054906101000a900460ff1691505092915050565b600082821115151561245e576040517f08c379a000000000000000000000000000000000000000000000000000000000815260040180806020018281038252601e8152602001807f536166654d6174683a207375627472616374696f6e206f766572666c6f77000081525060200191505060405180910390fd5b600082840390508091505092915050565b60008060026001840181151561248157fe5b0490508291505b818110156124b45780915060028182858115156124a157fe5b04018115156124ac57fe5b049050612488565b50919050565b6124c48282612042565b151515612539576040517f08c379a000000000000000000000000000000000000000000000000000000000815260040180806020018281038252601f8152602001807f526f6c65733a206163636f756e7420616c72656164792068617320726f6c650081525060200191505060405180910390fd5b60018260000160008373ffffffffffffffffffffffffffffffffffffffff1673ffffffffffffffffffffffffffffffffffffffff16815260200190815260200160002060006101000a81548160ff0219169083151502179055505050565b6125a18282612042565b151561263b576040517f08c379a00000000000000000000000000000000000000000000000000000000081526004018080602001828103825260218152602001807f526f6c65733a206163636f756e7420646f6573206e6f74206861766520726f6c81526020017f650000000000000000000000000000000000000000000000000000000000000081525060400191505060405180910390fd5b60008260000160008373ffffffffffffffffffffffffffffffffffffffff1673ffffffffffffffffffffffffffffffffffffffff16815260200190815260200160002060006101000a81548160ff0219169083151502179055505050565b828054600181600116156101000203166002900490600052602060002090601f016020900481019282601f106126da57803560ff1916838001178555612708565b82800160010185558215612708579182015b828111156127075782358255916020019190600101906126ec565b5b5090506127159190612719565b5090565b61273b91905b8082111561273757600081600090555060010161271f565b5090565b9056fea165627a7a72305820e68495f3ab94b4c81e09b356a121dc5b34943bc8ffeb2799be3d20e763a1a8160029",
  "source": "pragma solidity >=0.4.25 <0.6.0;\n\nimport \"openzeppelin-solidity/contracts/math/SafeMath.sol\";\nimport \"openzeppelin-solidity/contracts/ownership/Ownable.sol\";\nimport \"openzeppelin-solidity/contracts/access/roles/MinterRole.sol\";\n\n/**\n * @title QVVoting\n * @dev the manager for proposals / votes\n */\ncontract QVVoting is Ownable, MinterRole {\n    using SafeMath for uint256;\n\n    uint256 private _totalSupply;\n    string public symbol;\n    string public name;\n    mapping(address => uint256) private _balances;\n\n    event VoteCasted(address voter, uint ProposalID, uint256 weight);\n\n    event ProposalCreated(\n        address creator,\n        uint256 ProposalID,\n        string description,\n        uint votingTimeInHours\n    );\n\n    enum ProposalStatus {IN_PROGRESS, TALLY, ENDED}\n\n    struct Proposal {\n        address creator;\n        ProposalStatus status;\n        uint256 yesVotes;\n        uint256 noVotes;\n        string description;\n        address[] voters;\n        uint expirationTime;\n        mapping(address => Voter) voterInfo;\n    }\n\n    struct Voter {\n        bool hasVoted;\n        bool vote;\n        uint256 weight;\n    }\n\n    mapping(uint256 => Proposal) public Proposals;\n    uint public ProposalCount;\n    address voteTokenContract;\n\n    constructor() public {\n        symbol = \"QVV\";\n        name = \"QV Voting\";\n    }\n\n    /**\n    * @dev Creates a new proposal.\n    * @param _description the text of the proposal\n    * @param _voteExpirationTime expiration time in minutes\n    */\n    function createProposal(\n        string calldata _description,\n        uint _voteExpirationTime\n    ) external onlyOwner returns (uint) {\n        require(_voteExpirationTime > 0, \"The voting period cannot be 0\");\n        ProposalCount++;\n\n        Proposal storage curProposal = Proposals[ProposalCount];\n        curProposal.creator = msg.sender;\n        curProposal.status = ProposalStatus.IN_PROGRESS;\n        curProposal.expirationTime = now + 60 * _voteExpirationTime * 1 seconds;\n        curProposal.description = _description;\n\n        emit ProposalCreated(\n            msg.sender,\n            ProposalCount,\n            _description,\n            _voteExpirationTime\n        );\n        return ProposalCount;\n    }\n\n    /**\n    * @dev sets a proposal to TALLY.\n    * @param _ProposalID the proposal id\n    */\n    function setProposalToTally(uint _ProposalID)\n        external\n        validProposal(_ProposalID)\n        onlyOwner\n    {\n        require(\n            Proposals[_ProposalID].status == ProposalStatus.IN_PROGRESS,\n            \"Vote is not in progress\"\n        );\n        require(\n            now >= getProposalExpirationTime(_ProposalID),\n            \"voting period has not expired\"\n        );\n        Proposals[_ProposalID].status = ProposalStatus.TALLY;\n    }\n\n    /**\n    * @dev sets a proposal to ENDED.\n    * @param _ProposalID the proposal id\n    */\n    function setProposalToEnded(uint _ProposalID)\n        external\n        validProposal(_ProposalID)\n        onlyOwner\n    {\n        require(\n            Proposals[_ProposalID].status == ProposalStatus.TALLY,\n            \"Proposal should be in tally\"\n        );\n        require(\n            now >= getProposalExpirationTime(_ProposalID),\n            \"voting period has not expired\"\n        );\n        Proposals[_ProposalID].status = ProposalStatus.ENDED;\n    }\n\n    /**\n    * @dev returns the status of a proposal\n    * @param _ProposalID the proposal id\n    */\n    function getProposalStatus(uint _ProposalID)\n        public\n        view\n        validProposal(_ProposalID)\n        returns (ProposalStatus)\n    {\n        return Proposals[_ProposalID].status;\n    }\n\n    /**\n    * @dev returns a proposal expiration time\n    * @param _ProposalID the proposal id\n    */\n    function getProposalExpirationTime(uint _ProposalID)\n        public\n        view\n        validProposal(_ProposalID)\n        returns (uint)\n    {\n        return Proposals[_ProposalID].expirationTime;\n    }\n\n    /**\n    * @dev counts the votes for a proposal. Returns (yeays, nays)\n    * @param _ProposalID the proposal id\n    */\n    function countVotes(uint256 _ProposalID) public view returns (uint, uint) {\n        uint yesVotes = 0;\n        uint noVotes = 0;\n\n        address[] memory voters = Proposals[_ProposalID].voters;\n        for (uint i = 0; i < voters.length; i++) {\n            address voter = voters[i];\n            bool vote = Proposals[_ProposalID].voterInfo[voter].vote;\n            uint256 weight = Proposals[_ProposalID].voterInfo[voter].weight;\n            if (vote == true) {\n                yesVotes += weight;\n            } else {\n                noVotes += weight;\n            }\n        }\n\n        return (yesVotes, noVotes);\n\n    }\n\n    /**\n    * @dev casts a vote.\n    * @param _ProposalID the proposal id\n    * @param numTokens number of voice credits\n    * @param _vote true for yes, false for no\n    */\n    function castVote(uint _ProposalID, uint numTokens, bool _vote)\n        external\n        validProposal(_ProposalID)\n    {\n        require(\n            getProposalStatus(_ProposalID) == ProposalStatus.IN_PROGRESS,\n            \"proposal has expired.\"\n        );\n        require(\n            !userHasVoted(_ProposalID, msg.sender),\n            \"user already voted on this proposal\"\n        );\n        require(\n            getProposalExpirationTime(_ProposalID) > now,\n            \"for this proposal, the voting time expired\"\n        );\n\n        _balances[msg.sender] = _balances[msg.sender].sub(numTokens);\n\n        uint256 weight = sqrt(numTokens); // QV Vote\n\n        Proposal storage curproposal = Proposals[_ProposalID];\n\n        curproposal.voterInfo[msg.sender] = Voter({\n            hasVoted: true,\n            vote: _vote,\n            weight: weight\n        });\n\n        curproposal.voters.push(msg.sender);\n\n        emit VoteCasted(msg.sender, _ProposalID, weight);\n    }\n\n    /**\n    * @dev checks if a user has voted\n    * @param _ProposalID the proposal id\n    * @param _user the address of a voter\n    */\n    function userHasVoted(uint _ProposalID, address _user)\n        internal\n        view\n        validProposal(_ProposalID)\n        returns (bool)\n    {\n        return (Proposals[_ProposalID].voterInfo[_user].hasVoted);\n    }\n\n    /**\n    * @dev checks if a proposal id is valid\n    * @param _ProposalID the proposal id\n    */\n    modifier validProposal(uint _ProposalID) {\n        require(\n            _ProposalID > 0 && _ProposalID <= ProposalCount,\n            \"Not a valid Proposal Id\"\n        );\n        _;\n    }\n\n    /**\n    * @dev returns the square root (in int) of a number\n    * @param x the number (int)\n    */\n    function sqrt(uint x) internal pure returns (uint y) {\n        uint z = (x + 1) / 2;\n        y = x;\n        while (z < y) {\n            y = z;\n            z = (x / z + z) / 2;\n        }\n    }\n\n    /**\n    * @dev minting more tokens for an account\n    */\n    function mint(address account, uint256 amount) public onlyOwner {\n        require(account != address(0), \" mint to the zero address\");\n        _totalSupply = _totalSupply.add(amount);\n        _balances[account] = _balances[account].add(amount);\n    }\n\n    /**\n    * @dev returns the balance of an account\n    */\n    function balanceOf(address account) public view returns (uint256) {\n        return _balances[account];\n    }\n\n}\n",
  "sourcePath": "/home/me/workspace/qv_system/contracts/QVVoting.sol",
  "compiler": {
    "name": "solc",
    "version": "0.5.0+commit.1d4f565a.Emscripten.clang"
  },
  "schemaVersion": "3.0.3",
  "updatedAt": "2019-06-02T11:39:10.665Z",
  "devdoc": {
    "details": "the manager for proposals / votes",
    "methods": {
      "balanceOf(address)": {
        "details": "returns the balance of an account"
      },
      "castVote(uint256,uint256,bool)": {
        "details": "casts a vote.",
        "params": {
          "_ProposalID": "the proposal id",
          "_vote": "true for yes, false for no",
          "numTokens": "number of voice credits"
        }
      },
      "countVotes(uint256)": {
        "details": "counts the votes for a proposal. Returns (yeays, nays)",
        "params": {
          "_ProposalID": "the proposal id"
        }
      },
      "createProposal(string,uint256)": {
        "details": "Creates a new proposal.",
        "params": {
          "_description": "the text of the proposal",
          "_voteExpirationTime": "expiration time in minutes"
        }
      },
      "getProposalExpirationTime(uint256)": {
        "details": "returns a proposal expiration time",
        "params": {
          "_ProposalID": "the proposal id"
        }
      },
      "getProposalStatus(uint256)": {
        "details": "returns the status of a proposal",
        "params": {
          "_ProposalID": "the proposal id"
        }
      },
      "isOwner()": {
        "details": "Returns true if the caller is the current owner."
      },
      "mint(address,uint256)": {
        "details": "minting more tokens for an account"
      },
      "owner()": {
        "details": "Returns the address of the current owner."
      },
      "renounceOwnership()": {
        "details": "Leaves the contract without owner. It will not be possible to call `onlyOwner` functions anymore. Can only be called by the current owner.     * > Note: Renouncing ownership will leave the contract without an owner, thereby removing any functionality that is only available to the owner."
      },
      "setProposalToEnded(uint256)": {
        "details": "sets a proposal to ENDED.",
        "params": {
          "_ProposalID": "the proposal id"
        }
      },
      "setProposalToTally(uint256)": {
        "details": "sets a proposal to TALLY.",
        "params": {
          "_ProposalID": "the proposal id"
        }
      },
      "transferOwnership(address)": {
        "details": "Transfers ownership of the contract to a new account (`newOwner`). Can only be called by the current owner."
      }
    },
    "title": "QVVoting"
  },
  "userdoc": {
    "methods": {}
  }
}