{
  "contractName": "Voting",
  "abi": [
    {
      "constant": true,
      "inputs": [
        {
          "name": "",
          "type": "address"
        }
      ],
      "name": "bank",
      "outputs": [
        {
          "name": "tokenBalance",
          "type": "uint256"
        }
      ],
      "payable": false,
      "stateMutability": "view",
      "type": "function"
    },
    {
      "constant": true,
      "inputs": [],
      "name": "pollCount",
      "outputs": [
        {
          "name": "",
          "type": "uint256"
        }
      ],
      "payable": false,
      "stateMutability": "view",
      "type": "function"
    },
    {
      "constant": true,
      "inputs": [
        {
          "name": "",
          "type": "uint256"
        }
      ],
      "name": "polls",
      "outputs": [
        {
          "name": "creator",
          "type": "address"
        },
        {
          "name": "status",
          "type": "uint8"
        },
        {
          "name": "quorumPercentage",
          "type": "uint256"
        },
        {
          "name": "yeaVotes",
          "type": "uint256"
        },
        {
          "name": "nayVotes",
          "type": "uint256"
        },
        {
          "name": "description",
          "type": "string"
        },
        {
          "name": "expirationTime",
          "type": "uint256"
        }
      ],
      "payable": false,
      "stateMutability": "view",
      "type": "function"
    },
    {
      "constant": true,
      "inputs": [],
      "name": "token",
      "outputs": [
        {
          "name": "",
          "type": "address"
        }
      ],
      "payable": false,
      "stateMutability": "view",
      "type": "function"
    },
    {
      "inputs": [
        {
          "name": "_vote_token_address",
          "type": "address"
        }
      ],
      "payable": false,
      "stateMutability": "nonpayable",
      "type": "constructor"
    },
    {
      "anonymous": false,
      "inputs": [
        {
          "indexed": false,
          "name": "voter",
          "type": "address"
        },
        {
          "indexed": false,
          "name": "pollID",
          "type": "uint256"
        },
        {
          "indexed": false,
          "name": "vote",
          "type": "bytes"
        },
        {
          "indexed": false,
          "name": "weight",
          "type": "uint256"
        }
      ],
      "name": "voteCasted",
      "type": "event"
    },
    {
      "anonymous": false,
      "inputs": [
        {
          "indexed": false,
          "name": "creator",
          "type": "address"
        },
        {
          "indexed": false,
          "name": "pollID",
          "type": "uint256"
        },
        {
          "indexed": false,
          "name": "quorumPercentage",
          "type": "uint256"
        },
        {
          "indexed": false,
          "name": "description",
          "type": "string"
        },
        {
          "indexed": false,
          "name": "votingLength",
          "type": "uint256"
        }
      ],
      "name": "pollCreated",
      "type": "event"
    },
    {
      "anonymous": false,
      "inputs": [
        {
          "indexed": false,
          "name": "status",
          "type": "bool"
        }
      ],
      "name": "pollStatusUpdate",
      "type": "event"
    }
  ],
  "bytecode": "0x608060405234801561001057600080fd5b5060405160208061051a8339810180604052602081101561003057600080fd5b8101908080519060200190929190505050600073ffffffffffffffffffffffffffffffffffffffff168173ffffffffffffffffffffffffffffffffffffffff16141515156100e6576040517f08c379a000000000000000000000000000000000000000000000000000000000815260040180806020018281038252601f8152602001807f506c656173652070726f7669646520566f7465546f6b656e416464726573730081525060200191505060405180910390fd5b80600360006101000a81548173ffffffffffffffffffffffffffffffffffffffff021916908373ffffffffffffffffffffffffffffffffffffffff160217905550506103e3806101376000396000f3fe608060405260043610610062576000357c0100000000000000000000000000000000000000000000000000000000900463ffffffff168063529a1baf146100675780639207891d146100cc578063ac2f0074146100f7578063fc0c546a1461020f575b600080fd5b34801561007357600080fd5b506100b66004803603602081101561008a57600080fd5b81019080803573ffffffffffffffffffffffffffffffffffffffff169060200190929190505050610266565b6040518082815260200191505060405180910390f35b3480156100d857600080fd5b506100e1610284565b6040518082815260200191505060405180910390f35b34801561010357600080fd5b506101306004803603602081101561011a57600080fd5b810190808035906020019092919050505061028a565b604051808873ffffffffffffffffffffffffffffffffffffffff1673ffffffffffffffffffffffffffffffffffffffff16815260200187600381111561017257fe5b60ff16815260200186815260200185815260200184815260200180602001838152602001828103825284818151815260200191508051906020019080838360005b838110156101ce5780820151818401526020810190506101b3565b50505050905090810190601f1680156101fb5780820380516001836020036101000a031916815260200191505b509850505050505050505060405180910390f35b34801561021b57600080fd5b50610224610391565b604051808273ffffffffffffffffffffffffffffffffffffffff1673ffffffffffffffffffffffffffffffffffffffff16815260200191505060405180910390f35b60016020528060005260406000206000915090508060000154905081565b60025481565b60006020528060005260406000206000915090508060000160009054906101000a900473ffffffffffffffffffffffffffffffffffffffff16908060000160149054906101000a900460ff1690806001015490806002015490806003015490806004018054600181600116156101000203166002900480601f0160208091040260200160405190810160405280929190818152602001828054600181600116156101000203166002900480156103815780601f1061035657610100808354040283529160200191610381565b820191906000526020600020905b81548152906001019060200180831161036457829003601f168201915b5050505050908060060154905087565b600360009054906101000a900473ffffffffffffffffffffffffffffffffffffffff168156fea165627a7a72305820ef293559cfc9d1cdabd537a8bbde08cd57e46df90f2f270d03d3d3feded0d8100029",
  "source": "pragma solidity >=0.4.25 <0.6.0;\n\nimport \"openzeppelin-solidity/contracts/math/SafeMath.sol\";\nimport \"./VoteToken.sol\";\n\ncontract Voting {\n\n    using SafeMath for uint256;\n\n/* EVENTS */\n  event voteCasted(address voter, uint pollID, bytes vote, uint weight);\n  event pollCreated(address creator, uint pollID, uint quorumPercentage, string description, uint votingLength);\n  event pollStatusUpdate(bool status);\n\n  /* Determine the current state of a poll */\n  enum PollStatus { IN_PROGRESS, TALLY, PASSED, REJECTED }\n\n /* POLL */\n  struct Poll {\n    address creator;\n    PollStatus status;\n    uint quorumPercentage;\n    uint yeaVotes;\n    uint nayVotes;\n    string description;\n    address[] voters;\n    uint expirationTime;\n    mapping(address => Voter) voterInfo;\n  }\n\n  /* VOTER */\n  struct Voter {\n    bool hasVoted;\n    bytes vote;\n    uint weight;\n  }\n\n/* TOKEN MANAGER */\n  struct TokenManager {\n    uint tokenBalance;\n    mapping(uint => uint) lockedTokens;\n    uint[] participatedPolls;\n  }\n\n  /* STATE VARIABLES */\n  mapping(uint => Poll) public polls;\n  mapping(address => TokenManager) public bank;\n  uint public pollCount;\n  VoteToken public token;\n\n/* CONSTRUCTOR */\n  constructor(address _vote_token_address) public {\n    require(_vote_token_address != address(0), \"Please provide VoteTokenAddress\");\n    token = VoteToken(_vote_token_address);\n  }\n\n}\n",
  "sourcePath": "/home/me/workspace/qv_system/contracts/Voting.sol",
  "compiler": {
    "name": "solc",
    "version": "0.5.0+commit.1d4f565a.Emscripten.clang"
  },
  "schemaVersion": "3.0.3",
  "updatedAt": "2019-05-28T19:46:49.770Z",
  "devdoc": {
    "methods": {}
  },
  "userdoc": {
    "methods": {}
  }
}